:100000000C9453040C94F6150C949A040C949A04D2
:100010000C949A040C949A040C949A040C949A04E8
:100020000C949A040C949A040C946A2A0C943C2B19
:100030000C9481240C949A040C949A040C949A04C1
:100040000C949A040C949A040C949A040C949A04B8
:100050000C949A040C94E9240C949A040C949A0439
:100060000C949A040C949A040C949A040C949A0498
:100070000C949A040C949A040C949A040C949A0488
:100080000C949A040C949A040C949A040C949A0478
:100090000C949A040C949A040C949A040C949A0468
:1000A0000C949A040C949A040C949A0417101A1045
:1000B0001F1026102B10301035103A103F1044102E
:1000C00049104E1051105110511051105110511033
:1000D00051105110691A691A9B1A9B1AE81A4B1C85
:1000E0004B1C4B1C081BA51BB61BB61B171C201C4E
:1000F0004B1C441CC91CC91CDB1CDB1CD21CDB1C9C
:10010000DB1CDB1CC91CC91CD71CDB1CDB1CD71C63
:10011000A92BD02BC22CD02BC22C1C2C3F2CC22C98
:10012000952CA42C29001E001F0020002100220075
:100130002B0014001A00080015001700E10004004D
:100140001600070009000A00E0001D001B00060061
:100150001900050000000000E300E2002C002C0064
:100160004C00270026002500240023003100130046
:1001700012000C0018001C00340033000F000E00A9
:100180000D000B00E50038003700360010001100AC
:1001900000000000E60001532800280035003A0066
:1001A0003B003C003D003E002B00C25C52000000C2
:1001B000C35CC45CE100500051004F00000000002F
:1001C000E00000000000000000000000000000004F
:1001D000E300E2002C002C004400430042004100F8
:1001E00040003F0045004C0030002F002E002D0045
:1001F0004B004A0000000000000000004E004D00CF
:10020000460000000253000000000000E60001006C
:100210002800280029001E001F00200021002200C5
:100220002B0014001A00080015001700E10004005C
:100230001600070009000A00E0001D001B00060070
:10024000190005000000000007550F552C002C0078
:10025000C55C27002600250024002300C65C13008F
:1002600012000C0018001C00C85CC75C0F000E00D8
:100270000D000B00CA5CC95C37003600100011008D
:1002800000000000E6000100280028004445425517
:10029000473A2064697361626C65642E0A004445C4
:1002A0004255473A20656E61626C65642E0A000A09
:1002B0000025303862003A200025303258000A729A
:1002C0002F632030313233343536370A007267629B
:1002D0006C696768742073657420687376205B4E60
:1002E0004F454550524F4D5D3A2025752C25752CB4
:1002F00025750A007267626C69676874207365749B
:1003000020687376205B454550524F4D5D3A20255D
:10031000752C25752C25750A007267626C696768F3
:10032000742064697361626C65205B4E4F45455073
:10033000524F4D5D3A207267626C696768745F6303
:100340006F6E6669672E656E61626C65203D202563
:10035000750A007267626C6967687420646973610A
:10036000626C65205B454550524F4D5D3A20726787
:10037000626C696768745F636F6E6669672E656E2D
:1003800061626C65203D2025750A007267626C69A8
:1003900067687420656E61626C65205B45455052EC
:1003A0004F4D5D3A207267626C696768745F636F76
:1003B0006E6669672E656E61626C65203D202575ED
:1003C0000A007267626C6967687420746F67676C93
:1003D00065205B454550524F4D5D3A207267626C17
:1003E000696768745F636F6E6669672E656E6162C8
:1003F0006C65203D2025750A007267626C6967682C
:1004000074206D6F6465205B4E4F454550524F4DD3
:100410005D3A2025750A007267626C69676874200E
:100420006D6F6465205B454550524F4D5D3A202508
:10043000750A007267626C696768745F696E6974D7
:10044000207267626C696768745F636F6E66696764
:100450002E6D6F6465203D20302E205772697465C3
:100460002064656661756C742076616C75657320B7
:10047000746F20454550524F4D2E0A007267626CD2
:10048000696768745F696E6974206565636F6E661D
:100490006967206973206E6F7420656E61626C6598
:1004A000642E0A007267626C696768745F696E69BE
:1004B00074207374617274210A007267626C6967D8
:1004C00068745F696E69742063616C6C65642E0A80
:1004D000007267626C696768745F636F6E666967F4
:1004E0002E7370656564203D2025640A0072676282
:1004F0006C696768745F636F6E6669672E76616C9E
:10050000203D2025640A007267626C696768745F29
:10051000636F6E6669672E736174203D2025640ADF
:10052000007267626C696768745F636F6E666967A3
:100530002E687565203D2025640A007267686C6925
:100540006768745F636F6E6669672E6D6F646520A0
:100550003D2025640A007267626C696768745F6396
:100560006F6E6669672E656E61626C65203D202541
:10057000640A007267626C696768745F636F6E66B5
:10058000696720454550524F4D3A0A006261636BDE
:100590006C6967687420737465703A2025750A0069
:1005A0006261636B6C696768742064697361626C13
:1005B000650A006261636B6C6967687420656E61CF
:1005C000626C650A006261636B6C696768742074B1
:1005D0006F67676C653A2025750A006261636B6C12
:1005E000696768742064656372656173653A202584
:1005F000750A006261636B6C6967687420696E6379
:1006000072656173653A2025750A000001010101D8
:1006100001010101010202020202020202020303BD
:10062000030303030303040404040404040505058D
:10063000050506060606060707070707080808084F
:10064000090909090A0A0A0B0B0B0C0C0C0D0D0DFC
:100650000E0E0E0F0F0F1010111111121213131492
:1006600014151516161717181819191A1A1B1B1C0A
:100670001D1D1E1E1F202021222223242425262664
:10068000272829292A2B2C2D2D2E2F303132323399
:100690003435363738393A3B3C3D3E3F40414243A2
:1006A0004445464748494A4C4D4E4F505153545586
:1006B0005658595A5B5D5E5F616264656668696B36
:1006C0006C6D6F7072737577787A7B7D7E808283B4
:1006D0008587888A8C8E8F91939596989A9C9EA0F8
:1006E000A2A3A5A7A9ABADAFB1B3B5B7BABCBEC005
:1006F000C2C4C6C9CBCDCFD1D4D6D8DBDDDFE2E4CE
:10070000E7E9EBEEF0F3F5F8FAFDFF0A00253032E9
:100710005820006B6579626F6172645F7265706FFB
:1007200072743A20000A0025303258006B657962F5
:100730006F6172645F7365745F6C65643A20005B1F
:10074000735D004B6579626F6172642073746172CE
:10075000742E0A005B575D005B535D005B525D00C9
:100760005B445D005B435D000403300000001C033C
:10077000490072006900730020004B006500790099
:1007800062006F0061007200640000000E034B0005
:1007900065006500620069006F0000000403090441
:1007A00009025B00030100A0FA0904000001030133
:1007B0000100092111010001224000070581030801
:1007C000000A0904010001030000000921110100D1
:1007D000012236000705820320000A0904020002F4
:1007E00003000000092111010001222200070583F6
:1007F000032000010705030320000112011001007E
:1008000000000810CB56120004010203010631FF5C
:100810000974A1010975150026FF0095207508814E
:10082000020976150026FF00952075089102C00583
:10083000010980A10185031A81002A8300160100A5
:10084000260300950175108100C0050C0901A10166
:1008500085041A01002A9C02160100269C029501BB
:1008600075108100C005010906A101050719E029DD
:10087000E71500250195087501810295017508812C
:10088000010507190029FF150026FF0095067508C8
:100890008100050819012905950575019102950149
:1008A00075039101C00011241FBECFEFDAE0DEBF57
:1008B000CDBF04B603FE27C080916A0290916B02FF
:1008C000A0916C02B0916D028730904BA740B04B65
:1008D000D1F410926A0210926B0210926C02109284
:1008E0006D0214BE84B7877F84BF0FB6F894A895B5
:1008F00080916000886180936000109260000FBE5C
:10090000E0E0F8E3099511E0A0E0B1E0E2E6FBE504
:1009100002C005900D92AA35B107D9F722E0AAE5E9
:10092000B1E001C01D92AA36B207E1F70E948A2702
:100930000C94AF2D0C940000FF93EF93E0915A01BB
:10094000F0915B01309709F00995EF91FF910895BF
:10095000FC018591803011F0EFDFFBCF0895FF2778
:10096000E0E230E247FF0CC0419597FF09C0EDE29D
:100970006095709580959095611D711D811D911DEB
:1009800027FF02C0219530E350E2AA27660F771FA8
:10099000881F991FAA1FA41710F0A41B63955A95CE
:1009A000A9F7AA3008F0A95FA05DAF93F395611590
:1009B00071058105910541F7ED3211F4EF93F3953F
:1009C000F21718F43F93F395FBCF8F91B5DFFA95AB
:1009D000E1F70895E991F9918591803021F0853210
:1009E00019F0AADFF9CF089520E0E8945591553227
:1009F000C1F3503311F4689455915A3348F450536D
:100A000090F3220F022E220F220F200D250FF4CF7C
:100A10000EF4219589919991533619F3533729F1A1
:100A2000533559F1BC0188279927E8945C3621F4A5
:100A30008991999168945591543639F446EF7EF036
:100A400077FF0DC08FEF9FEF0AC055374AE039F0AE
:100A5000583540E121F0523642E009F00895FF9305
:100A6000EF937DDFEF91FF91B7CFFF93EF93FC0101
:100A700081918030B9F360DFFBCFFF93EF9368DFA4
:100A8000F1CFDF93CF93CDB7DEB72596A3DFCF911C
:100A9000DF91089581E0089581E008950C944C055C
:100AA0001F93CF93DF9300D000D01F92CDB7DEB756
:100AB00049835A832091A50189819A81211112C00D
:100AC000662349F00E94F021182F682F89819A81AE
:100AD0000E94932103C00E94C321182F69817A814B
:100AE000812F04C00E94F02169817A810F900F90BC
:100AF0000F900F900F90DF91CF911F910C944406AF
:100B0000FC01408151816281738184810C94500584
:100B10000E943B23811102C00E94E4230E94141210
:100B20000E945E120C9417090E9413120E94C012B8
:100B30000C941A0908950C949A0581E008950C9478
:100B40009D05CF93C82F0E949B058C2F0E949F0567
:100B5000CF91089508950E94B91C0E94AA052FEF15
:100B600084E39CE0215080409040E1F700C0000009
:100B70000C940F250F931F93CF93DF938C010E944A
:100B80008005EC01B8010E944E05882309F471C06C
:100B9000B801CE010E94D113882309F46AC0B801BC
:100BA000CE010E941214882309F463C0B801CE015B
:100BB0000E940010882309F45CC0F8018281882318
:100BC00039F1C1308CE5D80759F0CE3DECE5DE07B0
:100BD000E1F0C115FCE5DF07D9F40E94AB0549C07F
:100BE00080911B02C82FC095C170C0FB80F9809313
:100BF0001B02CC2329F08EE992E00E94A80439C0A0
:100C00008CE892E00E94A80435C00E94E42331C021
:100C1000C631DC4539F50E947022282FF801828107
:100C20004091250150912601882379F02A7A91E09C
:100C300009F490E090935C01911102C069E201C057
:100C400065E3CA010E941D240AC080915C018111E4
:100C500002C069E201C065E3CA010E941F240E942C
:100C6000BC2207C0C801DF91CF911F910F910C9456
:100C70004A05C0E08C2FDF91CF911F910F9108950D
:100C800080E090E00895089596E0799FF0011124A6
:100C90009CE3899FE00DF11D1124E60FF11DEE0F7D
:100CA000FF1FEC5DFE4F859194910895880F991F69
:100CB000FC01E155FD4F859194910895CF93DF9309
:100CC0000E9444060E943F08EC01811522E592072C
:100CD00008F046C0811531E5930708F052C1883EFF
:100CE000910500F5803E910508F0C5C1883A91054F
:100CF00070F4853A910508F0B1C08130910509F48E
:100D0000BAC108F46BC1049708F0B5C167C18F3B45
:100D1000910508F4AEC0803C910508F45FC1805C89
:100D2000910906C1811540E4940790F4C11580E350
:100D3000D80708F001C1C11521E0D20708F44EC15F
:100D4000C11530E2D30708F496C1CE019F70F0C000
:100D5000811540E5940708F0F9C0DF70D06A8BC1B7
:100D6000C11589E5D807B8F5C11528E5D20708F0FF
:100D700021C1C11534E5D307D0F42C2F2695269533
:100D8000CE0183709927C115D34508F0FFC040E21A
:100D9000249F90011124C1E0D0E002C0CC0FDD1FE0
:100DA0008A95E2F72C2B3D2BE901DC6864C1C11563
:100DB00085E5D80708F4F9C0C11526E5D20708F083
:100DC0000DC18C2F0E94D3088F71C82FD0E0DC2F6B
:100DD000CC27D06250C1CD3B3CE5D30709F4F5C028
:100DE000E0F4CB3B8CE5D80709F4E9C008F0EAC091
:100DF000C1153AE5D30708F0F1C08C2F8F700E941F
:100E0000D30894E0D695C7959A95E1F7CF70D0E0D6
:100E1000DC2FCC27D069C82B2EC1C03C4CE5D407B1
:100E200009F4D9C060F4CE3B2CE5D20709F4D0C058
:100E3000CF3BDC4509F0D2C0C0E0D2ED1CC1CE01F1
:100E400090568115904208F0C9C08D2F8F710E9475
:100E5000D308DD27D0628F71D82B0DC1853A91055B
:100E600009F4BFC0863A910509F0BEC0C2E8D0E4DB
:100E700002C1883A910509F4BAC0893A910509F48A
:100E8000B9C08A3A910509F4B8C08B3A910509F4C2
:100E9000B7C08C3A910509F4B6C08B3B910509F4B3
:100EA000B5C08C3B910509F4B4C08D3A910509F4A5
:100EB000B3C0803B910509F4B2C08E3A910509F4A4
:100EC000B1C08F3A910509F4B0C0813B910509F496
:100ED000AFC0823B910509F4AEC0833B910509F494
:100EE000ADC0843B910509F4ACC0853B910509F484
:100EF000ABC0863B910509F4AAC0873B910509F474
:100F0000A9C0883B910509F4A8C0893B910509F463
:100F1000A7C08D3B910509F4A6C08E3B910509F44D
:100F2000A5C08A3B910509F4A4C0C0E0D4E4A3C0E5
:100F30000E945606EC019FC0CE019927D3FF03C043
:100F4000EC01D86C98C0EC01D06C95C0837021E0A6
:100F500030E002C0220F331F8A95E2F73C68CE01D1
:100F600074E0969587957A95E1F78370382BCF706A
:100F7000C695C69580E2C89FE0011124C22BD32BF1
:100F80007AC0D82FCC27C16FD06A75C040E2249FA9
:100F900090011124C1E0D0E002C0CC0FDD1F8A9582
:100FA000E2F7C22BD32BDA6866C0DC2FCC27C46FE4
:100FB000D06A61C0DC2FCC27C06FD06A5CC0C0E0B3
:100FC000D4ED59C0C0E0D5ED56C0C0E0D1ED53C05E
:100FD000C0E0D0ED50C0C0E0D3ED4DC0C0E0D0E0E7
:100FE0004AC0C1E8D0E447C0C3E8D0E444C0C2EE80
:100FF000D4E441C0C9EED4E43EC0CAEED4E43BC060
:10100000C5EBD4E438C0C6EBD4E435C0C3EBD4E4BC
:1010100032C0C4EBD4E42FC0C7EBD4E42CC0CCEC7A
:10102000D4E429C0CDECD4E426C0C3E8D5E423C081
:10103000CAE8D5E420C0C2E9D5E41DC0C4E9D5E4BE
:101040001AC0C1E2D6E417C0C3E2D6E414C0C4E2B9
:10105000D6E411C0C5E2D6E40EC0C6E2D6E40BC0A9
:10106000C7E2D6E408C0CFE6D4E405C0C0E7D4E4C4
:1010700002C0CAE2D6E4CE01DF91CF910895823852
:10108000910569F1B0F48133910509F46DC048F41C
:101090008932910509F463C08A32910509F469C067
:1010A00008958533910509F455C089339105B9F048
:1010B0000895833E910569F138F4803E9105B1F0C1
:1010C000823E910509F10895863E9105A9F1873E7A
:1010D0009105B9F1843E910509F064C023C02091C7
:1010E0005B0220FD4FC021FD4DC0089580915B0241
:1010F00080FD44C080915C0280FF44C080915B020F
:1011000084FD42C083EE4DC080915B0282FF38C0F7
:10111000F5CF80915B0282FD33C080915C0280FD3F
:1011200031C0ECCF80915C0281FF32C080915B02C4
:1011300084FD2AC087EE35C080915B0283FF26C004
:10114000F5CF80915B0283FD21C080915C0281FD1F
:101150001FC0ECCF80915B0285FD1CC01DC080913B
:101160005B0285FD19C016C080915B0286FD16C02A
:1011700017C080915B0286FD13C010C089E311C0C7
:1011800082EE0FC080EE0DC080E00BC086EE09C07D
:1011900084EE07C089E205C085E303C08AE201C08E
:1011A00081E390E0089590915B0292FF0DC0282F9B
:1011B0002871283019F4877F846006C0282F247195
:1011C000243011F48B7F886093FF0DC0282F287185
:1011D000283119F4877E846106C0282F24712431B8
:1011E00011F48B7E886120915C0220FF0DC0382FA6
:1011F0003871383019F4877F816006C0382F31711B
:10120000313011F48E7F886021FF0DC0282F2871A6
:10121000283119F4877E816106C0282F2171213180
:1012200011F48E7E886194FD877E089508950C9454
:10123000160908950C9419090895E82FF0E0ED5966
:10124000FE4F80810895CF92DF92EF92FF920F932D
:101250001F93CF93DF938EEB92E00E94A80483E666
:10126000E82E81E0F82EC0E0D0E099EBC92E92E0A4
:10127000D92E01EB12E0DF93CF93DF92CF920E9441
:10128000410586EB92E00E94A804F70181917F015D
:101290000E9425231F928F931F930F930E94410555
:1012A0008FEA92E00E94A80421968DB79EB7089617
:1012B0000FB6F8949EBF0FBE8DBFCA30D105D9F6C8
:1012C000DF91CF911F910F91FF90EF90DF90CF9022
:1012D0000895CF93DF93CDB7DEB760970FB6F8943C
:1012E000DEBF0FBECDBF0E94410B80911001811166
:1012F0002CC0FE0131968AE0DF011D928A95E9F744
:1013000081E3898382E38A8382E98B8381EF8C8303
:1013100084EF8D83A6E0B1E08AE08E0F91919D93DA
:101320008E13FCCF86E0E2E3F1E0DE011B96019034
:101330000D928A95E1F7A0E0B1E0FE013B9686E0D0
:101340008E0F91919D938E13FCCF8091100181118E
:1013500002C095E001C090E090932C0285E0891BCB
:1013600080932B02A6E0B1E041E050E025E02A0F97
:101370008D91E82FE295EF70F0E031A18F70BA0106
:1013800002C0660F771F8A95E2F7CB01962F9095E2
:10139000932391A392A1892B82A32A13E9CFA0E0E2
:1013A000B1E041E050E026E02A0F8D91E82FE29570
:1013B000EF70F0E031A18F70BA0102C0660F771FA5
:1013C0008A95E2F7CB01962F9095932391A392A152
:1013D000892B82A32A13E9CFE3E6F1E08AE08E0F9E
:1013E00011928E13FDCF85E00E94E70A60960FB63A
:1013F000F894DEBF0FBECDBFDF91CF910C9488056E
:10140000CF92DF92EF92FF920F931F93CF93DF93D0
:10141000A6E0B1E0EEE5F1E0D12C41E050E085E05E
:10142000C82ECE0ECF01F08010826C91262F22950F
:101430002F7030E0E90119A16F70EA0102C0CC0FF2
:10144000DD1F6A95E2F7BE01612BE90169A33C91BA
:10145000632F62956F7070E0EB011AA13F70EA0193
:1014600002C0CC0FDD1F3A95E2F79E0120952123A3
:10147000EB012AA3D0EADA95F1F700E011E020E0D1
:1014800030E0E801E9908E016E2D62956F7070E09A
:10149000EB0168A170E0DE2DDF7002C075956795E5
:1014A000DA95E2F760FD07C0BA01022E01C0660FAF
:1014B0000A94EAF702C060E070E07081672B6083F5
:1014C0002F5F3F4F26303105E1F67C91272F229583
:1014D0002F7030E0E90119A17F70EA0102C0CC0F42
:1014E000DD1F7A95E2F7BE0160956123E90169A3EA
:1014F0006D91262F22952F7030E0E9011AA16F70AF
:10150000EA0102C0CC0FDD1F6A95E2F7BE01612B34
:10151000E9016AA3319621E0EC018881F81201C04B
:1015200020E0D22ACE127ECF60912C0270E06D595D
:101530007E4F2D2D45E08EE591E00E94E80A8D2D2D
:10154000DF91CF911F910F91FF90EF90DF90CF909F
:101550000895CF930E94000AC82F0E94240B88236D
:1015600039F120912B02822F90E08D599E4F0E94DD
:101570007F0B811118C090915D019F5F90935D0179
:10158000963098F040912B0220E030E050E0F901D5
:10159000E40FF51FED59FE4F10822F5F3F4F2530AE
:1015A0003105A9F702C010925D010E9494050CC09C
:1015B00020912C02822F90E08D599E4F0E94AC0BFF
:1015C0000E94C0120E941C098C2FCF91089508958B
:1015D000FF920F931F93CF93DF938C01F62ED72F9B
:1015E000C42F222349F081E080936F010E94B3242D
:1015F00090936E0180936D0180916F018823C1F0FB
:1016000080916D0190916E010E94BF24069780F039
:10161000EF2DFD2FD8014C2F50E0CD01801B910BF9
:10162000841795071CF48D918193F7CF10926F0169
:10163000DF91CF911F910F91FF900895559889B137
:1016400085FB882780F9089580917001811112C06F
:101650008091D80080618093D8008AE18A95F1F763
:1016600000C08091D90080FD02C082E001C081E00D
:101670008093700181E090917001913009F080E0D9
:1016800008950E941E0B809310018091100166E066
:10169000882311F080E001C086E00E94640C0E9463
:1016A000240B81110C94560B0C945C0B62E070E0DF
:1016B00081E191E00C949B1562E070E081E191E0A2
:1016C0000C94A4150E94BA0F882361F08AE791E078
:1016D0000E94C00F81E090E00E948616892B11F4D1
:1016E0000C94BD0F089580917901883039F460E041
:1016F0008AE791E00E94D30F109279010895CF9369
:10170000DF93D82FC92F0E94620B80E090E00E94E7
:101710008616892BE9F4ED2FFC2F80E090E0DC01A8
:10172000AD58BE4F2C912193019685309105B9F7A4
:101730000E943F11882319F00E94A01101C080E08F
:101740008093720188E791E00E94311381E001C02B
:1017500080E0DF91CF910895CF93DF9300D0CDB794
:10176000DEB789839A830E94730B8981E82F9A815F
:10177000F92F80E090E02191DC01AD58BE4F2C9311
:10178000019685309105B9F7809172010E94B711D9
:1017900088E791E00F900F90DF91CF910C94281380
:1017A000AF92BF92CF92DF92FF920F931F93CF938E
:1017B000DF93D62E372FE82FF0E0711106C0E55FDA
:1017C000F94F6491762F862F75C0C72FD0E0E55F63
:1017D000F94F2491F22E022F10E046E0649FC001E1
:1017E0001124EFEFF0E0BF010E94112DAB016BEA75
:1017F0006403C001659F900D11248D0D911D8D0D09
:10180000911D982F990F890FDF01AC1BBD0B0A9F0B
:10181000B0010B9F700D1A9F700D1124972F839F9D
:10182000D0011124AB2FBB276F01CA1ADB0A0C9D14
:10183000D0010D9DB00D1C9DB00D11245F01A81AA3
:10184000B108AC9E6001AD9ED00CBC9ED00C1124A2
:10185000CD2DDD27EC1BFD0B0E9FE0010F9FD00D62
:101860001E9FD00D1124ED2F4230510591F04CF404
:1018700041155105E1F041305105B9F4E22F2B2F0C
:1018800016C04430510569F044F04630510579F0F6
:101890000CC0E22F272F9D2F0AC0272F9F2DEB2F43
:1018A00006C0E72F922F2D2F02C0E72F9B2F6E2F00
:1018B000722F892FDF91CF911F910F91FF90DF90B1
:1018C000CF90BF90AF9008958093830160932201E1
:1018D0000895CF93DF93762FE901682F842F0E941C
:1018E000D00B798368838A83DF91CF9108958091AB
:1018F0002D02982F9695913021F08170826080930F
:101900002D02089588E090E00C946F2DCF93DF9323
:1019100000D000D0CDB7DEB7AB01BC0149835A83FC
:101920006B837C830E94770C49815A816B817C8117
:1019300088E090E00F900F900F900F90DF91CF9183
:101940000C948D2DEDE2F2E083E0808311828FEF25
:10195000828383831482A5E8B1E012968C9112975A
:10196000836012968C9360817181828193810C9443
:10197000860C80911B0280FF08C083E795E09F934F
:101980008F930E9441050F900F9080911B0280FF62
:101990000FC080912D0281701F928F9386E595E094
:1019A0009F938F930E9441050F900F900F900F907F
:1019B00080911B0280FF0FC080912D0286951F929F
:1019C0008F938BE395E09F938F930E9441050F9037
:1019D0000F900F900F9080911B0280FF0EC080919E
:1019E0002E021F928F9381E295E09F938F930E9426
:1019F00041050F900F900F900F9080911B0280FF78
:101A00000EC080912F021F928F9387E095E09F93E5
:101A10008F930E9441050F900F900F900F9080912F
:101A20001B0280FF0EC0809130021F928F938DEEBB
:101A300094E09F938F930E9441050F900F900F9019
:101A40000F9080911B0280FF0EC0809131021F9287
:101A50008F9381ED94E09F938F930E9441050F90A7
:101A60000F900F900F90089580913102833018F4F9
:101A70008F5F8093310260912D0270912E028091D0
:101A80002F02909130020C94860C809131028823B1
:101A900019F081508093310260912D0270912E02D5
:101AA00080912F02909130020C94860C609122015B
:101AB00070E080912D0280FF0AC08091830123E0B5
:101AC000829FC00111248E5C9D4F0C94581280910E
:101AD000820190912101891780F7E82FF0E09F01A2
:101AE000220F331FE20FF31FEE5CFD4F11821082B5
:101AF00012828F5FF0CF80912D028E7F80932D0216
:101B000060912D0270912E0280912F0290913002EF
:101B10000E94860C80911B0280FF0FC080912D02D5
:101B200081701F928F9383E593E09F938F930E9420
:101B300041050F900F900F900F9080918701816069
:101B4000809387012FEF80E792E021508040904002
:101B5000E1F700C000000C94560D80912D028E7F9D
:101B600080932D0280911B0280FF0CC01F921F9258
:101B700089E193E09F938F930E9441050F900F900E
:101B80000F900F90809187018160809387012FEFE4
:101B900080E792E0215080409040E1F700C00000D3
:101BA0000C94560D90912D0290FF16C090918201D9
:101BB00020912101921770F4E92FF0E0DF01AA0FC4
:101BC000BB1FEA0FFB1FEE5CFD4F818360834283E6
:101BD0009F5FF0CF0C94560D0895EF92FF920F93F4
:101BE0001F93CF93DF9300D01F92CDB7DEB79091B4
:101BF0002D0290FF65C0E22EF42E062F182FE92F3C
:101C0000E695F0E0E85CFE4F8081809385019E7F41
:101C1000923059F49E012F5F3F4F812F0E94690C33
:101C20004B8169818A810E94D20D80912E0281139D
:101C300008C080912F02801304C0809130028F155C
:101C400029F08091870182608093870110932E0292
:101C500000932F02F0923002EE20E9F060912D0205
:101C600070912E0280912F02909130020E94860C7A
:101C700080911B0280FF24C0809130021F928F93BD
:101C800080912F021F928F9380912E021F928F932B
:101C900084EF92E00CC080911B0280FF11C01F9264
:101CA000FF921F920F931F921F938DEC92E09F93D0
:101CB0008F930E9441050FB6F894DEBF0FBECDBFD3
:101CC0000F900F900F90DF91CF911F910F91FF9088
:101CD000EF900895EDE2F2E09181282F4381628137
:101CE00088E0890F0C94ED0D81E00C946A0EEDE212
:101CF000F2E09181282F4381628188EF890F0C9453
:101D0000ED0D81E00C94770EEDE2F2E0628121E1CD
:101D1000620F08F46FEF282F438181810C94ED0D41
:101D200081E00C94840EEDE2F2E0628121E1621B1D
:101D300008F460E0282F438181810C94ED0D81E04F
:101D40000C94930EEDE2F2E0438121E1420F08F49E
:101D50004FEF282F628181810C94ED0D81E00C946E
:101D6000A20EEDE2F2E0438121E1421B08F440E0E3
:101D7000282F628181810C94ED0D81E00C94B10ECD
:101D800020E00C94ED0D80912D0280FF3AC081700F
:101D9000826080932D02809187018160809387010A
:101DA0006623B1F060912D0270912E0280912F0276
:101DB000909130020E94860C80911B0280FF19C016
:101DC00080912D0286951F928F9387E194E009C040
:101DD00080911B0280FF0DC01F9281E08F9389EFDD
:101DE00093E09F938F930E9441050F900F900F9067
:101DF0000F904091300260912F0280912E020C943E
:101E0000C00E0895682F81E00C94C30E81E00C94FD
:101E1000020F682F90912D0296958FEF890F09F48C
:101E200081E00C94C30E81E00C94090F61E00C94E6
:101E3000C30E80912D02816080932D0280911B0240
:101E400080FF0DC01F9281E08F938BE893E09F93FA
:101E50008F930E9441050F900F900F900F908091EB
:101E60002D0286950C94160F80911B0280FF10C0E6
:101E700080912D02809581701F928F9382EC93E068
:101E80009F938F930E9441050F900F900F900F909A
:101E900080912D0280FD0C947B0D0C94190F60E055
:101EA0000C94C30E80918401811163C080911B0248
:101EB00080FF08C08AEB94E09F938F930E944105B6
:101EC0000F900F9080911B0280FF08C084EA94E07D
:101ED0009F938F930E9441050F900F900E943B2388
:101EE000811110C080911B0280FF08C08CE794E034
:101EF0009F938F930E9441050F900F900E94E423BF
:101F00000E94A20C0E94820C60932D0270932E02FC
:101F100080932F0290933002809187018360809399
:101F200087016E7FC1F480911B0280FF08C083E3AC
:101F300094E09F938F930E9441050F900F900E9411
:101F4000A20C0E94820C60932D0270932E0280934B
:101F50002F02909330020E94770C0E94B90C80915E
:101F60002D0280FF03C086950E944F0F81E0809371
:101F70008401089580918701089510928701089542
:101F800025E0EDE2F2E0DC0101900D922A95E1F707
:101F9000209185013091860140918701FC012583C4
:101FA0003683478308951F93CF93DF93EC01162F59
:101FB0008F8180FF0FC0888180FF0AC080912D0231
:101FC000816080932D02888186950E94C30E02C095
:101FD0000E94AD0D8F8181FF09C0212F4B816A8145
:101FE0008981DF91CF911F910C94ED0DDF91CF91FD
:101FF0001F910895882311F0FA0101C0FB01099493
:102000001F93CF93DF93FB01128111114AC0EC01A2
:102010000E9470228272FE01E25CFC45E431F1050F
:1020200020F4EA5AFF4F0C94472D11E03AC00E9469
:10203000340F37C043E15FE066E07FE004C046E074
:102040005FE063E17FE00E94FA0F2BC041E85EE0B1
:1020500064E77EE0F8CF44E75EE061E87EE0F3CF3E
:102060004FE95EE060E97EE0EECF40E95EE06FE9D7
:102070007EE0E9CF4DEB5EE06EEA7EE0E4CF4EEA33
:102080005EE06DEB7EE0DFCF45E45DE064E37DE0A4
:10209000DACF44E35DE065E47DE0D5CF81E00E94E6
:1020A000160F812FDF91CF911F9108950E943B233E
:1020B000811102C00E94E4230E946C238093560287
:1020C000282F26952695269530E02630310524F0D8
:1020D00087708862809356028091560280FF04C008
:1020E00086958695869501C080E00C94B711209165
:1020F0005602822F869586958695482F50E045306A
:10210000510554F48F5F982F990F990F990F822FD3
:102110008770892B8093560280915602816080934C
:1021200056020E94702380911B0280FF11C0809193
:1021300056028695869586951F928F9383EF95E03C
:102140009F938F930E9441050F900F900F900F90D7
:10215000809156028695869586950C94B71180914C
:102160005602982F969596959695A1F0915E990FA7
:10217000990F990F8770892B80935602887F91E081
:1021800009F490E08091560290FB80F9809356020A
:102190000E94702380911B0280FF11C08091560223
:1021A0008695869586951F928F938BED95E09F93EC
:1021B0008F930E9441050F900F900F900F90809188
:1021C00056028695869586950C94B7118091560295
:1021D00080FD1FC0816080935602813019F489E030
:1021E00080935602809156020E94702380911B02B8
:1021F00080FF08C083EB95E09F938F930E94410579
:102200000F900F90809156028695869586950C9436
:10221000B71108958091560280FF14C08E7F80937D
:1022200056020E94702380911B0280FF08C080EA42
:1022300095E09F938F930E9441050F900F9080E04F
:102240000C94B7110895CF93C0915602C17080913C
:102250001B0280FF0CC01F92CF9385EC95E09F93EB
:102260008F930E9441050F900F900F900F90CC23F9
:1022700019F0CF910C940A11CF910C94E610809133
:1022800056028170089590915602892F8695869501
:1022900086958F5F8F719770863038F4880F880F1E
:1022A000880F892B8093560202C09093560280912A
:1022B0005602887F91E009F490E08091560290FBED
:1022C00080F9809356020E94702380911B0280FF48
:1022D00011C0809156028695869586951F928F93A0
:1022E0008CE895E09F938F930E9441050F900F908B
:1022F0000F900F90809156028695869586950C9446
:10230000B711863008F085E0880F880F880F90910C
:1023100056029770892B80935602887F91E009F4CA
:1023200090E08091560290FB80F9809356020E94C3
:102330007023809156028695869586950C94B711E8
:10234000809156028695869586950895E82FE295A8
:10235000EF70F0E032A1282F2F7081E090E001C0F3
:10236000880F2A95EAF78095832382A30895CF9258
:10237000DF92EF92FF92863030F4811105C0909188
:1023800080009F7704C085E09091800090689093D2
:102390008000282F30E0AFEFBFEF0E944D2D25E0E9
:1023A00030E040E050E00E94252D2C3784E13807D2
:1023B0004105510530F4C90169E070E00E94112D1A
:1023C00029C0DA01C9018A50974DAF4FBF4F662728
:1023D000782F892F9A2F25EF38E241E050E00E94B4
:1023E000252D69017A01CA01B9010E94F52C9B01D2
:1023F000AC01C701B6010E94F52CBB27A92F982F6D
:10240000872F009721E0A207B10511F0BC0102C09F
:102410006FEF7FEF7093890060938800FF90EF90DB
:10242000DF90CF9008950895259A85E30E94A61124
:1024300082E88093800089E1809381008FEF9FEF95
:1024400090938700809386000C9456102BB1342F04
:10245000309523233BB1432B3FB7F894FC01680F21
:10246000791FE617F70789F0819198E04BB90000D2
:1024700000C087FF2BB9880F000000C000C000C05B
:102480002BB900C09A9591F7ECCF3FBF08952AB1C0
:10249000242B2AB99B01220F331F620F731F0E9446
:1024A000261287EC90E00197F1F700C00000089534
:1024B00040E40C94471208950C945B128091100133
:1024C000882309F448C020912401A22FA295AF705F
:1024D000B0E091966C9191972F7081E090E0AC0103
:1024E000022E01C0440F0A94EAF7342F30953623A8
:1024F00091963C93919792963C919297432B92960A
:102500004C93929740912301E42FE295EF70F0E015
:1025100031A14F70042E01C0880F0A94EAF7982F5A
:102520009095932391A392A1892B82A390968C914D
:1025300090E002C0959587952A95E2F781709927DA
:1025400020A130E002C0359527954A95E2F720FD9D
:1025500009C020E008C087EF8093240186EF8093B4
:102560002301B1CF22E0822B80938D019091100145
:1025700081E0982790938901891B809388010895B1
:10258000CF93E0918D015E2F550F550F20912401BF
:10259000E22FE295EF70F0E080A190E02F7002C092
:1025A000959587952A95E2F78170992740912301A7
:1025B000E42FE295EF70F0E020A130E04F7002C010
:1025C000359527954A95E2F7F901E170FF2720FF3D
:1025D00002C0E2E0F0E0E82BF92BE52BE0938D015F
:1025E000C0918901EF70F0E0E65CFE4F9081809130
:1025F0008C01890F80938C0184306CF0EC2F0C2EB1
:10260000000CFF0BE657FE4F80818F5F808361E0F7
:102610008C2F0E945C1280918C018D3F6CF4EC2F0A
:102620000C2E000CFF0BE657FE4F808181508083FB
:1026300060E08C2F0E945C1280918C01837887FF70
:1026400003C081508C6F8F5F80938C01CF91089570
:10265000E0918901F0E0E657FE4F2081FC012083E4
:102660000895FF920F931F93CF93DF93D09188012A
:102670000D2F10E006571E4FFC01C081F80180812C
:10268000C81BFC2E1F1454F4FA94F80180818F5F4C
:10269000808361E08D2F0E945C12F4CF8C2FC7FDE8
:1026A00080E0C81BCC2351F0CF5FF80180818150BE
:1026B000808360E08D2F0E945C12F4CFDF91CF9178
:1026C0001F910F91FF9008950F931F93CF93DF9366
:1026D000C62FD42F022FFC0182818823C9F060937A
:1026E00090010E94B32490938F0180938E0180E229
:1026F0008C0F883008F050C0C77081E001C0880F8F
:10270000CA95EAF7DF91CF911F910F910C94291A86
:1027100010919001161330C080918E0190918F011D
:102720000E94BF24883C910538F5C0E2CD0F1D17EB
:10273000B9F080E2810F883040F4177081E001C069
:10274000880F1A95EAF70E94301AC83048F481E0E1
:102750009D2F977001C0880F9A95EAF70E94291A59
:10276000802F0E94161AC830B8F4D77081E001C0DB
:10277000880FDA95EAF70AC080E28C0F883060F49F
:10278000C77081E001C0880FCA95EAF7DF91CF9149
:102790001F910F910C94301ADF91CF911F910F91DF
:1027A00008959C01CB01233F4CE53407F9F078F400
:1027B000283DFCE53F07B9F0293D4CE5340711F110
:1027C000273D3C4531F526E241EE61EE1EC0253F36
:1027D000FCE53F0799F070F0263F3C45D1F427E235
:1027E00045EE66EE12C027E245EE0EC026E241EE4F
:1027F00060EE0BC027E245EE64EE07C026E241EE34
:1028000062EE03C028E241E065EE0E94641380E0BE
:102810000895FC018281882319F010929001089597
:1028200081E00895CF93DF93EC01FB01828188233F
:1028300009F41FC1C230FCE5DF0708F41BC1C63133
:102840009CE5D90738F09E012A5F3C4529303105C7
:1028500008F010C10E944E2390935C0280935B02AB
:10286000C031ECE5DE0709F4C3C008F041C0C83050
:102870008CE5D80709F49AC0F0F4C430ECE5DE0723
:1028800009F487C068F4C2308CE5D80709F477C032
:10289000C330DC4509F0E3C080915B02826076C002
:1028A000C630ECE5DE0709F46EC008F07BC080910D
:1028B0005B0288606BC0CC308CE5D80709F485C01A
:1028C00068F4CA30ECE5DE0709F474C008F079C09A
:1028D0000E94B91C80915B02806858C0CE308CE5A4
:1028E000D80709F476C008F07FC080915B028BC0E6
:1028F000CB3FECE5DE0709F44FC018F5C3318CE59A
:10290000D80709F47DC078F4C131ECE5DE0709F49D
:1029100073C0C231DC4509F0A2C00E94B91C80918D
:102920005B028F7733C0C5318CE5D80709F472C0DC
:1029300008F486C0CA3FDC4509F091C080915C0272
:102940003EC0CF3FFCE5DF0709F45FC058F4CD3F40
:102950009CE5D90709F444C008F43FC080915C02AB
:1029600082602DC0C130FDE5DF0709F475C008F4B1
:102970005DC0C230DD4509F072C080E06EC080915C
:102980005B02816003C080915B02806180935B0287
:1029900066C080915B0211C080915C02826080936E
:1029A0005C025DC080915B028062F0CF80915B022F
:1029B0008064ECCF80915B0288608460E7CF8160A7
:1029C000EECF80915B028E7FE1CF80915B028D7FA5
:1029D000DDCF80915B02877FD9CF80915C0218C0E8
:1029E00080915C028D7FDBCF80915B028F7ECECFAA
:1029F00080915B028F7DCACF80915B028F7BC6CFB7
:102A000080915B02877F8B7FC1CF80915C028D7F3D
:102A10008E7FC5CF80915B0282FB222720F991E057
:102A2000922790FB82F990FB83F9B0CF80915C02F2
:102A3000982F909591708E7F892B90FB81F9AFCF65
:102A40000E94B91C80915B0287FB222720F991E04C
:102A5000922790FB87F99ACF81E00E94E62380912C
:102A60005B0290915C020E945F230E94B91C80E08F
:102A700001C081E0DF91CF9108958EE1489B02C0B3
:102A80008150E1F7489BFECF0895589880E28A95DF
:102A9000F1F7589A0895FC013AE03A95F1F720E0F1
:102AA00090E080E031E0961779F040E14A95F1F747
:102AB000880F489B02C08160232700C0000040E1CE
:102AC0004A95F1F79F5FEFCF90E19A95F1F799B1B1
:102AD00000C0000030E13A95F1F791709227208113
:102AE000920F90830895EF92FF920F931F93CF93CD
:102AF000DF931F92CDB7DEB7F62E1982E82E8C0138
:102B0000802F8E198F1558F40E943D1568E0CE0174
:102B100001960E944B15F80181938F01F1CF81E05E
:102B20009981911180E00F90DF91CF911F910F91CA
:102B3000FF90EF900895909393018093920160939A
:102B40009101509A589A089590939301809392011D
:102B5000609391015098589AE89AE9E6F0E08081F4
:102B60008C7F80830895615091E001C0990F6A9530
:102B7000EAF720E031E0992361F0492F482319F06A
:102B8000589A232701C0589840E24A95F1F7969544
:102B9000F2CF222311F0589A01C0589880E28A950A
:102BA000F1F758980895EF92FF920F931F93CF93E8
:102BB000DF931F92CDB7DEB7162F082F7C018E2D25
:102BC000801B811758F4F70181917F0189830E944E
:102BD000451568E089810E94B315F1CF0F90DF9110
:102BE000CF911F910F91FF90EF9008951F920F9238
:102BF0000FB60F9211240F931F932F933F934F9370
:102C00005F936F937F938F939F93AF93BF93EF9354
:102C1000FF93CF93DF931F92CDB7DEB719820E9447
:102C20003D1567E0CE0101960E944B15382F369571
:102C300036953695932F96959570232F2570920F84
:102C4000292F2370969596958770920F891348C007
:102C50008981811145C080919101831708F440C09A
:102C600080E18A95F1F7589A509AA2E0AA95F1F777
:102C700000C00091920110919301B8E03B9F000DBC
:102C8000111D11245898F8016581662321F0868171
:102C900097810E94D3150E944515F0E1FA95F1F74E
:102CA00058985098589A80E18A95F1F7D801129671
:102CB0006C911297662369F013968D919C911497ED
:102CC0000E947315D801ED91FC91811105C082E03D
:102CD00004C0D801ED91FC9188E080830E943D15ED
:102CE0000F90DF91CF91FF91EF91BF91AF919F91A5
:102CF0008F917F916F915F914F913F912F911F9194
:102D00000F910F900FBE0F901F9018950F931F9368
:102D1000CF93DF932091910130E0281739070CF40D
:102D200071C09C0193E0220F331F9A95E1F7C09187
:102D30009201D0919301C20FD31FF894509A5898E2
:102D400045E04A95F1F70000982F969595708570AB
:102D5000890F982F937086958695890F8901082B86
:102D60000E94451584E08A95F1F700C067E0802F46
:102D70000E94B31540E14A95F1F75098589A489946
:102D800002C000C0FCCF87E090E0489B0EC00197D6
:102D900051F4509A589AE881F98181E080837894BF
:102DA00081E090E031C000C0F0CF6D81662381F0FA
:102DB0008E819F810E94731581110AC0509A589A82
:102DC000E881F98182E08083789482E090E01CC001
:102DD0000E943D1580E28A95F1F75898509A40E19B
:102DE0004A95F1F76A81662321F08B819C810E94CC
:102DF000D3150E944515E881F9811082789480E00E
:102E000090E002C084E090E0DF91CF911F910F919C
:102E1000089590939901809398010895E091980105
:102E2000F0919901309721F00190F081E02D099403
:102E300080E00895EF92FF920F931F93CF93DF935B
:102E4000E0919801F09199013097B1F18C010280E5
:102E5000F381E02D099580911B0282FF2DC080FF38
:102E600004C083E197E00E94A804E80118E08DE027
:102E7000E82E87E0F82E80911B0280FF0BC088812E
:102E80001F928F93FF92EF920E9441050F900F9037
:102E90000F900F90115021961111EDCF80911B02D0
:102EA00080FF0AC08BE097E0DF91CF911F910F91D7
:102EB000FF90EF900C94A804DF91CF911F910F9198
:102EC000FF90EF900895209196013091970182171D
:102ED000930771F09093970180939601E091980188
:102EE000F0919901309721F00680F781E02D099447
:102EF000089520919401309195018217930771F004
:102F00009093950180939401E0919801F09199013B
:102F1000309721F00084F185E02D0994089585B75C
:102F2000806885BF85B7806885BF08950895089536
:102F30000C94971708950C949A170E948F170E946B
:102F400096170C9498170E94AA240E9469090E945F
:102F500033250E9456100E94520F0C949B17CF935A
:102F6000C82F80911B0282FF1EC080FF04C08CE22C
:102F700097E00E94A80480911B0280FF0CC01F9262
:102F8000CF9387E297E09F938F930E9441050F9024
:102F90000F900F900F9080911B0280FF04C085E27C
:102FA00097E00E94A8048C2FCF910C94A105BF92AA
:102FB000CF92DF92EF92FF920F931F93CF93DF9305
:102FC000CDB7DEB72B970FB6F894DEBF0FBECDBFDF
:102FD0000E94A90A0E94240B811111C08FEF8983DE
:102FE0008A831B820E94B3248160782F9D838C8307
:102FF00049815A816B818D810E946C1842C08BE996
:10300000C82E81E0D82E00E010E0B02E802F0E9464
:103010001D09F601E1906F01E82631F40F5F1F4FA3
:103020000A30110591F7DACF90911B0291FF04C08D
:103030008B870E9423098B8590E0FF24F3942F2D2A
:103040002E21D1F09E83BF828F2191E009F490E080
:1030500098870E94B3248160782F9A8789874E8150
:103060005F8168858A850E946C18F801E556FE4FDD
:103070008081F826F08205C09F5FFF0C9630F9F63C
:10308000CDCF10919A010E940E171817A9F00E9437
:103090000E1780939A012B960FB6F894DEBF0FBEE1
:1030A000CDBFDF91CF911F910F91FF90EF90DF90F7
:1030B000CF90BF900C94AF172B960FB6F894DEBF4D
:1030C0000FBECDBFDF91CF911F910F91FF90EF9079
:1030D000DF90CF90BF900895CF93DF93CDB7DEB749
:1030E0002B970FB6F894DEBF0FBECDBF4F83588726
:1030F00069877A878B87DE01119686E0FD01119240
:103100008A95E9F785E0FE01379601900D928A9540
:10311000E1F749815A816B817C818D819E810E947A
:10312000631F2B960FB6F894DEBF0FBECDBFDF91A5
:10313000CF910895FC01808191810E9431220895F0
:10314000882309F413C1682F8238C1F40E940E1736
:1031500081FD0CC169E380912501909126010E94B7
:103160001D240E94BC222FEF81EE94E0215080406C
:103170009040E1F700C0000069E319C08338F9F41A
:103180000E940E1780FDF2C063E5809125019091A9
:1031900026010E941D240E94BC222FEF81EE94E0A4
:1031A000215080409040E1F700C0000063E580912D
:1031B0002501909126010E941F240C94BC22843882
:1031C000C1F40E940E1782FDD1C067E480912501F1
:1031D000909126010E941D240E94BC222FEF81EEB7
:1031E00094E0215080409040E1F700C0000067E487
:1031F000DECF8CEF860F813A38F4809125019091D3
:1032000026010E941D24D9CF80E2860F883048F421
:10321000677081E001C0880F6A95EAF70E94732207
:10322000CCCF8BE5860F833070F4653A29F0663A8F
:1032300031F083E890E005C081E890E002C082E8C8
:1032400090E00C94631788E5860F873108F08EC0F4
:10325000683A09F445C0693A09F445C06A3A09F484
:1032600045C06B3A09F445C06C3A09F445C06B3B64
:1032700009F445C06C3B09F445C06D3A09F445C0FA
:10328000603B09F445C06E3A09F445C06F3A09F451
:1032900045C0613B09F445C0623B09F445C0633B4E
:1032A00009F445C0643B09F445C0653B09F445C0D9
:1032B000663B09F445C0673B09F445C0683B09F427
:1032C00045C0693B09F445C06D3B09F445C06E3B00
:1032D00009F445C06A3B09F445C080E090E044C071
:1032E00082EE90E041C089EE90E03EC08AEE90E030
:1032F0003BC085EB90E038C086EB90E035C083EBB7
:1033000090E032C084EB90E02FC087EB90E02CC0BF
:103310008CEC90E029C08DEC90E026C083E891E031
:1033200023C08AE891E020C082E991E01DC084E9D1
:1033300091E01AC081E292E017C083E292E014C0EB
:1033400084E292E011C085E292E00EC086E292E053
:103350000BC087E292E008C08FE690E005C080E7EE
:1033600090E002C08AE292E00C94791708958823D5
:1033700009F45BC0682F823879F40E940E1781FF30
:1033800054C069E380912501909126010E941D247B
:103390000E94BC2269E310C08338B1F40E940E176A
:1033A00080FF43C063E580912501909126010E9432
:1033B0001D240E94BC2263E5809125019091260185
:1033C0000E941F240C94BC22843879F40E940E17AA
:1033D00082FF2BC067E480912501909126010E9415
:1033E0001D240E94BC2267E4E7CF8CEF860F813A50
:1033F00018F380E2860F883048F4677081E001C0DE
:10340000880F6A95EAF70E947922DCCF8BE5860F58
:10341000833020F480E090E00C946317685A6731A1
:1034200020F480E090E00C9479170895CF93C82F92
:103430000E94A018C93349F42FEF87EE93E0215082
:1034400080409040E1F700C000008C2FCF910C9499
:10345000B719882321F00E9473220C94BC2208958E
:10346000882321F00E9479220C94BC220895BF92F7
:10347000CF92DF92EF92FF920F931F93CF93DF9340
:103480007C01062FC72FFC01158112951F70D28178
:10349000D1110E9490220E946922882379F0DD23B5
:1034A00069F080E2800F883048F082E00E940723B4
:1034B0000E94692291E0B82EB92601C0B12CCC2E11
:1034C000C2948FE0C822D12CF601E659FF4F0C942C
:1034D000472D8C2F807FCF70882311F0C295C07F3D
:1034E000DD2399F0CC2309F48DC180E2800F883070
:1034F00010F0011104C08C2F0E94732203C08C2F86
:103500000E9483220E94BC227DC1802F0E94B71995
:10351000CC2309F4C0C180E2800F883010F0011183
:1035200004C08C2F0E94792203C08C2F0E94892214
:103530000E94BC22B0C18C2F807FCF70803211F0EE
:10354000C295C07F002319F00130C9F022C0DD23ED
:1035500071F0112341F0113031F40E94A3228C2B21
:103560000E94A92298C10E94A3228C2B1DC0112366
:1035700019F0113009F48FC10E94B22225C0DD2359
:1035800021F0163008F087C10EC0153008F083C155
:103590001BC0DD2361F0112331F0F701858180FF2D
:1035A00031C18F7085838C2F0E94291A74C1112319
:1035B00059F0093309F037C1FFEF27EE83E0F150EE
:1035C00020408040E1F72DC18C2F0E94301A63C14A
:1035D0008C2F86958695837090E0009719F001975F
:1035E00061F059C1DD2321F0802F9C2F937002C020
:1035F00080E090E00E94631759C1DD2321F0802F05
:103600009C2F937002C080E090E00E9479174EC119
:103610008C2F837009F049C0D11144C1402F4295CD
:1036200046954770440F440F602F6F70862F90E0CF
:10363000A0E0B0E0042E04C0880F991FAA1FBB1F92
:103640000A94D2F704FF10C00FE010E020E030E051
:1036500004C0000F111F221F331F4A95D2F7009597
:1036600010952095309503C000E010E09801C695B4
:10367000C695C370D0E0BC01CD01602B712B822BAD
:10368000932BC230D10559F0C330D10559F02197A1
:1036900019F00E94A82006C10E94962003C10E9432
:1036A000BA2000C10E949420FDC0DD2319F08C2FA8
:1036B000817001C08695882309F4F4C0402F42959B
:1036C00046954770440F440F602F6F70862F90E02F
:1036D000A0E0B0E0042E04C0880F991FAA1FBB1FF2
:1036E0000A94D2F704FF10C00FE010E020E030E0B1
:1036F00004C0000F111F221F331F4A95D2F70095F7
:1037000010952095309503C000E010E09801C69513
:10371000C695C370D0E0BC01CD01602B712B822B0C
:10372000932BC230D10559F0C330D10559F0219700
:1037300019F00E946E21B6C00E945C21B3C00E94A5
:103740008021B0C00E94CF20ADC0CF70DD2339F002
:103750008C2F0E94F520802F0E94291AA3C0802F51
:103760000E94301A8C2F0E9416219CC0023F01F14A
:1037700028F4003F41F0013FA1F040C0033FF9F0C1
:10378000043F39F13BC0DD2341F0153008F083C020
:103790008C2F8F710E943B217EC0163008F07BC0B9
:1037A000F7CFDD2339F08C2F8F710E94F52073C085
:1037B000DD23C9F38C2F8F710E9416216CC0DD238D
:1037C00029F08C2F8F710E94E02065C00E94DB20C1
:1037D00062C0DD2349F0CF718C2F0E94F52063E099
:1037E0008C2F0E94F22257C081E00E9407231230E2
:1037F00008F451C082E00E9407234DC0DD2331F060
:10380000112389F2802F0E94A01845C0112391F244
:10381000093349F49FEFE7EEF3E09150E040F040C8
:10382000E1F700C00000802F0E94B71934C04C2F70
:103830004F70602FC7010E9440060E94072036C0CB
:10384000D11134C0CF70D0E0C230D10599F03CF432
:10385000209769F02197F9F40E94AF1027C0C43077
:10386000D10571F054F02597B1F480E00AC00E94B0
:1038700077101CC00E94231119C00E94431116C06A
:1038800085E00E94811112C04C2F4F70602FC7013C
:103890000E9443060BC028E0C21AD10884E0C81673
:1038A000D10420F40E940E170E94A105BB20D1F084
:1038B0000E94652280FD16C0F70112820E945F22DD
:1038C0000E94F520C7010E947C1C0E945F22DF91AC
:1038D000CF911F910F91FF90EF90DF90CF90BF900D
:1038E0000C941621DF91CF911F910F91FF90EF90D3
:1038F000DF90CF90BF9008950F931F93CF93DF93E6
:10390000EC01888199812B813C81232BB9F09F3F69
:1039100011F48F3F99F0CE010E94BA05882371F00F
:10392000688179818A810E943C228C010E949221C7
:103930000E949320B801CE010E94371ADF91CF91E7
:103940001F910F9108950E9490220E94A0220E9430
:10395000BC2280E090E00E94631780E090E00C942D
:10396000791780912501909126010E9421240C94C1
:10397000A31C0E9480220C94B11CE92FE295EF70E9
:10398000F0E03297EE30F105B0F4E658FF4F0C94BA
:10399000472D803F91F018F4883E68F40EC0843FB4
:1039A00051F40BC0883E48F0813F29F406C093FBD8
:1039B000882780F9089580E0089581E008950E94A5
:1039C00031220E94BD1C0895CF93DF9300D000D018
:1039D0001F92CDB7DEB70F900F900F900F900F9002
:1039E000DF91CF910895CF93DF9300D000D000D026
:1039F000CDB7DEB726960FB6F894DEBF0FBECDBFAB
:103A0000DF91CF9108951F93CF93DF93C091A601CB
:103A100016E08091A701C81799F0D0E01C9FF00133
:103A20001D9FF00D1124E855FE4F408151816281A8
:103A30007381848195810E94F31C2196C770E9CF20
:103A4000DF91CF911F9108954091D8015091D901F4
:103A50006091DA017091DB018091DC019091DD01D0
:103A60000C94F31C8091DD0182958F7009F054C095
:103A70008091DA01882309F44FC08091A601A091BA
:103A8000A7016091D8017091D9014091DB0150915B
:103A9000DC01B6E08A1709F43FC090E041155105FA
:103AA000C1F17F3F11F46F3FA1F1B89FF001B99FC1
:103AB000F00D1124E855FE4F218172132AC0208198
:103AC000621327C02281211124C02381348124174D
:103AD000350710F421503109241B350B283C3105E2
:103AE000C0F42091DD012F7020612093DD0126E0DC
:103AF000289FF001299FF00D1124E355FE4F80818E
:103B00008F708061808388ED91E00E947C1C0C9412
:103B1000031D01968770BECF0895CF92DF92EF927A
:103B2000FF920F931F93CF93DF93CDB7DEB76297CA
:103B30000FB6F894DEBF0FBECDBF8C0185E0F80153
:103B4000DE011D9601900D928A95E1F7D8014C9106
:103B500011965C91119712966C9112971396CD90D5
:103B6000DC9014973091D8017091D9018091DB01DC
:103B70009091DC01009709F46BC17F3F19F43F3F3E
:103B800009F466C1E090DA01EE2009F4C0C020918A
:103B9000DD01C816D90628F0F601E81BF90BCF01A4
:103BA00004C0809590958C0D9D1DFF24F394883C56
:103BB000910578F0F12C207F09F0C6C07C2DD98AC0
:103BC000C88A89890E94E41C88ED91E00E947C1CCF
:103BD000B1C0822F807F09F046C0751314C0341322
:103BE00012C0611110C02F7020612093DD010E946E
:103BF000241D88ED91E00E947C1C8091DD01D8019C
:103C000015968C932EC0CD2819F15F3F11F44F3FCC
:103C1000F9F0F62E61111CC08091A6012091A70138
:103C200036E0821709F45AC090E0389FF001399FBE
:103C3000F00D1124E855FE4F7181571306C07081B5
:103C4000471303C07281711103C001968770E9CFD9
:103C5000F62E662309F427C18091DD0181608093EF
:103C6000DD01F12C20C1751308C0341306C06111A9
:103C700004C08091DD01D801C3C04D875E878D856A
:103C80009E856A8B0E94DF1C6A898823E1F1662386
:103C9000D1F12091DD01822F82958F7090E0029703
:103CA00074F08091D8019091D90198878F831986FB
:103CB000DB86CA862C87CE0107960E947C1C86E094
:103CC000F801A8EDB1E001900D928A95E1F70E940C
:103CD000321D0E94241DFF24F394E5C04D875E87AA
:103CE0008D859E850E943122292F22952F7030E0EC
:103CF000223031050CF0CBC09F7009F0C5C0805E4A
:103D0000883008F4D0C0C8010E947C1CE4CFC816DB
:103D1000D90608F453C0F601E81BF90BCF01883C23
:103D2000910508F450C0F12C7C2DD98AC88A898964
:103D30000E94E41CE8EDF1E086E0DF011D928A9527
:103D4000E9F70E94241DAFC0751314C0341312C0CC
:103D5000611110C08091DD01F8018583C8010E94C6
:103D60007C1C86E0E8EDF1E0DF011D928A95E9F721
:103D7000FE2C99C04D875E878D859E856A8B0E943B
:103D8000DF1C6A89882309F4BECF662309F4BBCF00
:103D90002091DD01822F82958F7090E002970CF4C4
:103DA0008ECF8091D8019091D9019A8389831B820B
:103DB000DD82CC822E83CE0101967FCF80959095B7
:103DC0008C0D9D1DACCFF62E662309F49CCF751388
:103DD0002EC034132CC02091DD0120FD1FC0822F86
:103DE00082958F70D9F0D80115962C9315978F3046
:103DF00049F08F5F982F9295907F822F8F70892B3B
:103E000015968C93C8010E947C1C86E0F801A8EDF1
:103E1000B1E001900D928A95E1F793CF86E0F80129
:103E2000A8EDB1E001900D928A95E1F73CC04D8775
:103E30005E878D859E850E94DF1C811140CF809119
:103E4000DD0181608093DD01C8010E947C1C2BC0D4
:103E5000662309F458CF4D875E878D859E850E9425
:103E6000DF1CF82E882309F44ECF86E0F801A8ED78
:103E7000B1E001900D928A95E1F788ED91E00E9402
:103E80009A180E94321D5DCF811139CF0CC02430A9
:103E900031050CF038CF9F7009F431CFF8019581CE
:103EA000907F09F02CCF8F2D62960FB6F894DEBF6D
:103EB0000FBECDBFDF91CF911F910F91FF90EF907B
:103EC000DF90CF9008951F93CF93DF93CDB7DEB7E8
:103ED0002C970FB6F894DEBF0FBECDBF4F83588727
:103EE00069877A878B879C87CE0107960E948D1DF4
:103EF000882369F08F8198852A853B85232BF1F1F2
:103F00009F3F09F063C08F3F09F060C037C086E073
:103F1000FE013796DE01119601900D928A95E1F728
:103F20006F817885EA85FB85309741F17F3F11F4F9
:103F30006F3F21F12091A70130E0C9010196877000
:103F400099274091A60150E08417950709F447C0CE
:103F500069837A83FD83EC8396E0929FD001939FDF
:103F6000B00D1124A855BE4FFE01319601900D925F
:103F70009A95E1F78093A7010E94031D16E08091B6
:103F8000A6019091A7018917C1F1189FC0011124C2
:103F900088559E4F0E948D1D882379F1E091A601DE
:103FA0001E9FF0011124E855FE4F4081518162812E
:103FB0007381848195810E94F31C8091A60190E019
:103FC0000196877099278093A601D9CF4F81588594
:103FD00069857A858B859C850E94F31CCFCF0E94D2
:103FE000B91C1092A7011092A601E8EDF1E086E05D
:103FF000DF011D928A95E9F7C1CF2C960FB6F89490
:10400000DEBF0FBECDBFDF91CF911F910895EF921C
:10401000FF920F931F93CF93DF938C01892B09F4A9
:104020006CC0F12CEE24E394E8012196F801849110
:10403000843740F4843008F051C0813081F0823000
:1040400019F15BC0853709F444C0A8F19CE7980FCB
:10405000903708F052C08F770E94B71941C00E5FA9
:104060001F4FFE01C49180E28C0F883048F4C77066
:104070008E2D01C0880FCA95EAF70E94932214C0C2
:104080008C2F0E94A0182DC00E5F1F4FFE01C491FF
:1040900080E28C0F883058F4C7708E2D01C0880FD5
:1040A000CA95EAF70E9499220E94BC221AC08C2F5E
:1040B0000E94B71916C00E5F1F4FFE01C491CC239A
:1040C00081F08FE99FE00197F1F700C00000C15037
:1040D000F6CF0E5F1F4FFE01F49003C00E94A018A0
:1040E0008E018F2D882309F49FCFEFE9FFE03197F0
:1040F000F1F700C000008150F5CFDF91CF911F9103
:104100000F91FF90EF90089508950C9484200E94E1
:10411000852060930A0270930B0280930C029093A7
:104120000D020C94A31C08950C9487200F931F93E9
:1041300000910A0210910B0220910C0230910D02A5
:10414000602B712B822B932B1F910F910C94872046
:104150000F931F9300910A0210910B0220910C0201
:1041600030910D0260237123822393231F910F91BD
:104170000C9487200F931F9300910A0210910B0259
:1041800020910C0230910D0260277127822793271E
:104190001F910F910C94872008950C94CC200E94BD
:1041A000CD206093060270930702809308029093DB
:1041B00009020C94A31C60E070E0CB010C94CF20AA
:1041C0000F931F9341E050E060E070E08A019B0193
:1041D00004C0000F111F221F331F8A95D2F7C90197
:1041E000B8011F910F910C94CF200F931F9341E0C2
:1041F00050E060E070E004C0440F551F661F771F59
:104200008A95D2F78091060290910702A091080248
:10421000B09109028A019B01082B192B2A2B3B2BF9
:10422000C901B8011F910F910C94CF200F931F93D8
:1042300041E050E060E070E004C0440F551F661F8D
:10424000771F8A95D2F7409550956095709580912B
:10425000060290910702A0910802B09109028A011A
:104260009B01082319232A233B23C901B8011F916D
:104270000F910C94CF200F931F9341E050E060E02A
:1042800070E004C0440F551F661F771F8A95D2F750
:104290008091060290910702A0910802B091090254
:1042A0008A019B01082719272A273B27C901B80142
:1042B0001F910F910C94CF200F931F930091060232
:1042C000109107022091080230910902602B712B96
:1042D000822B932B1F910F910C94CF200F931F9340
:1042E0000091060210910702209108023091090204
:1042F00060237123822393231F910F910C94CF206D
:104300000F931F930091060210910702209108025B
:104310003091090260277127822793271F910F91FF
:104320000C94CF200895292F220F920F990F890FF7
:10433000A82FA695A695A695877051E001C0550FA8
:104340008A95EAF785E0A89FD001112420E030E0AB
:1043500070E0F901EA0FFB1FE252FE4F4081CB01F2
:10436000022E02C0969587950A94E2F781709927EC
:10437000819584278523842780832F5F3F4F2530B5
:10438000310539F70895292F220F920F990F890FC0
:10439000682F669566956695982F977085E0689F5B
:1043A000B001112440E050E080E0FA01E60FF71F71
:1043B000E252FE4F208130E0092E02C0369527954B
:1043C0000A94E2F721703327042E01C0220F0A94C9
:1043D000EAF7822B4F5F5F4F4530510531F7089563
:1043E000BF92CF92DF92EF92FF920F931F93CF93E2
:1043F000DF938C01C0900A02D0900B02E0900C0277
:10440000F0900D028091060290910702A09108029F
:10441000B0910902C82AD92AEA2AFB2ACFE1D0E0C2
:10442000D701C6010C2E04C0B695A7959795879520
:104430000A94D2F780FF07C0BC2EB8018C2F0E94CF
:104440005E06019719F4219758F7B12C8B2DDF9157
:10445000CF911F910F91FF90EF90DF90CF90BF9081
:104460000895CF93DF93EC010E94F021BE010E94DA
:104470005E06DF91CF9108951F93CF93DF93EB01F9
:104480009091A501992321F0CB010E94312213C004
:10449000882349F0CB010E94F021182F682FCE010C
:1044A0000E94932104C0CB010E94C321182FBE019A
:1044B000812F0E945E06DF91CF911F910895809118
:1044C0000E02859585958595089580910E028770D9
:1044D000089590910E02977081E009F480E00895AC
:1044E00080911A02089590911A02892B80931A02E2
:1044F0000895809590911A02892380931A02089555
:1045000010921A02089590911902892B8093190232
:104510000895809590911902892380931902089536
:1045200010921902089590911802892B8093180215
:104530000895809590911802892380931802089518
:1045400010921802089580910F02089508950C9416
:10455000A62290910F02981721F080930F020C94DD
:10456000A722089580910F02882329F010920F024C
:1045700080E00C94A7220895E0912501F091260196
:1045800080911A028083E0912501F09126019081AB
:1045900080911902892B8083E0912501F0912601F9
:1045A000908180911802892B808380910F0288234B
:1045B00081F0E0912501F09126019081892B808383
:1045C00080912501909126010E94EB2381110E9488
:1045D000B22280912501909126010C941A1708951A
:1045E0000C94EF2298E0899F90011124262B2093B0
:1045F0000E020E94F52080910E0285958595859585
:104600000C94F02210920E0280E00C94F022209183
:104610000E028095822380930E02982F977079F472
:1046200030E0482F082E000C550B2417350739F0C1
:104630008595859585950E9416210C9402230895F1
:1046400090935B0180935A0108958295982F9C7CEA
:10465000392F36953695282F237344E0249FC001C7
:104660001124932F982B292F2A7A2695892F857527
:10467000880F822B089580E090E00E94752D21E044
:104680008C3E9E4F09F020E0822F089582E090E05A
:104690000C94672D83E090E00C94672DCF9384E019
:1046A00090E00E94672DC82F81E290E00E94672D64
:1046B0002C2F30E0A901582BCA01CF910895CF9338
:1046C000C92F682F84E090E00E947B2D6C2F81E23F
:1046D00090E0CF910C947B2D86E090E00C94672DB8
:1046E000682F86E090E00C947B2DAB01BC018FE03D
:1046F00090E00C948D2DAB01BC0183E190E00C9413
:104700008D2D60E070E0CB010C947B2360E070E0C5
:10471000CB010E9475230C9481236CEE7EEF80E028
:1047200090E00E94992D60E082E090E00E947B2D55
:1047300060E083E090E00E947B2D10920A021092CC
:104740000B0210920C0210920D0260E084E090E0E7
:104750000E947B2D60E081E290E00E947B2D60E072
:1047600085E090E00E947B2D60E086E090E00E9472
:104770007B2D6FEF87E090E00E947B2D40E050E0C2
:10478000BA0188E090E00E948D2D60E08DE090E01D
:104790000E947B2D40E050E0BA0188E190E00E9449
:1047A0008D2D60E087E190E00E947B2D40E050E09D
:1047B000BA018CE190E00E948D2D60E080E290E0F3
:1047C0000E947B2D0C9486230C948D23682F8EE001
:1047D00090E00C947B2DFC01329697E080E09150A4
:1047E00029F021912223D9F38F5FF9CF08959C01FD
:1047F000FC0132969FEF80E04191461789F09F3F80
:1048000019F4411101C0982F8F5F8630A9F79F3F9F
:1048100039F0F901E90FF11D97FDFA9562830895CA
:104820000895FC01329608962081261301C010825B
:104830003196E817F907C1F708950C94F7230C9403
:104840001124029626E0FC0111922A95E9F70895B9
:1048500008950C9428240E942924809161028430B8
:1048600061F110921C0220E488E190E00FB6F89408
:10487000A895809360000FBE2093600080E00E94A6
:10488000B71180E00E94A1050E94292483B7817F8F
:10489000846083BF83B7816083BF7894889583B732
:1048A0008E7F83BF0FB6F894A895809160008861D1
:1048B00080936000109260000FBE089508950895DF
:1048C000CF930E945E240E94A90A0E945F24C0E048
:1048D0008C2F0E941D09811104C0CF5FCA30C1F71F
:1048E00001C081E0CF91089508950C9474240E9432
:1048F000B91C0E9456100E940E170E94A1050C942C
:1049000075241F920F920FB60F9211248F939F93CD
:10491000AF93BF9380911C02811113C08091570205
:1049200090915802A0915902B0915A024196A11D4E
:10493000B11D8093570290935802A0935902B093EF
:104940005A02BF91AF919F918F910F900FBE0F9020
:104950001F90189582E084BD93E095BD9AEF97BDB6
:1049600080936E0008952FB7F8948091570290912C
:104970005802A0915902B0915A022FBF0895CF92C8
:10498000DF92EF92FF920F931F932FB7F89440910D
:104990005702509158026091590270915A022FBFEC
:1049A0006A017B01EE24FF248C0120E030E0C01678
:1049B000D106E206F30610F4415051099A01281B72
:1049C000390BC9011F910F91FF90EF90DF90CF90AD
:1049D000089578941F920F920FB60F9211248F931F
:1049E0009F93AF93BF938091570290915802A091EB
:1049F0005902B0915A020196A11DB11D8093570230
:104A000090935802A0935902B0935A02BF91AF916C
:104A10009F918F910F900FBE0F901F90189581E07E
:104A20008093E00080E28093D8001092C9008FE16B
:104A30009EE40197F1F700C0000087E090EBDC01F5
:104A400080936A0290936B02A0936C02B0936D0204
:104A50009CE088E10FB6F894A895809360000FBEA3
:104A600090936000FFCF0E943B23811102C00E94FF
:104A7000E4230E94462380931B020E944E239093BE
:104A80005C0280935B020E944A23682F70E080E002
:104A900090E00C94942080912802089508959FB787
:104AA000F89410921F029FBF90916102943009F018
:104AB00057C09091E9009F703091EC00232F217036
:104AC00030FD20E8922B23E02093E9002091EB00B9
:104AD00020FF43C02091EE0027FF3FC020911D0220
:104AE000222321F02091E80025FF37C010921D02FB
:104AF00026E03091E80035FD15C030916102343078
:104B000061F53091EB0035FD28C0215021F481E0A2
:104B100080931D0222C0EFE9FFE03197F1F700C05A
:104B20000000E7CF8093F1008091E80085FD0AC086
:104B30008091E80080FFFCCF8091E8008E77809321
:104B4000E80006C08FB7F89421E020931F028FBFC2
:104B50009F709093E90080E008959F709093E90022
:104B60008FEF08950F931F93CF93DF9300D01F9281
:104B7000CDB7DEB78C010E943D28823011F0843021
:104B800021F584E089831B830A8382E08093E90016
:104B90008FEF9091E800815095FD06C095ED9A95B4
:104BA000F1F700008111F5CF8091E80085FF0DC07D
:104BB00040E050E063E070E0CE0101960E945A2888
:104BC0008091E8008E778093E8000F900F900F900F
:104BD000DF91CF911F910F910895CF93DF9300D074
:104BE0001F92CDB7DEB720916102243031F523E06A
:104BF0002983805891099B838A8382E08093E9000E
:104C00008FEF9091E800815095FD06C095ED9A9543
:104C1000F1F700008111F5CF8091E80085FF0DC00C
:104C200040E050E063E070E0CE0101960E945A2817
:104C30008091E8008E778093E8000F900F900F909E
:104C4000DF91CF910895CF93DF93EC010E943D282F
:104C5000823011F0843039F581E08093E9008FEFE4
:104C60009091E800815095FD06C095ED9A95F1F779
:104C700000008111F5CF8091E80085FF14C040E06D
:104C800050E068E070E0CE010E945A288091E80070
:104C90008E778093E80088E0FE01A0E2B2E0019008
:104CA0000D928A95E1F7DF91CF91089584E697E020
:104CB0000E94A80480916002811109C00E94EF291E
:104CC0000E944C2A8091E20084608093E200089563
:104CD00080E697E00E94A8041092600208958CE597
:104CE00097E00C94A80488E597E00C94A80484E568
:104CF00097E00E94A8040C94772420911E022F5F55
:104D0000822F62E30E94052D992319F020931E0241
:104D1000089510921E0280911F02882371F18091E4
:104D20006102843041F58091E9008F702091EC00A0
:104D3000922F917020FD90E8892B93E09093E900E9
:104D40009091EB0090FF14C09091EE0097FF10C07F
:104D50009091E80095FF03C01092F100F9CF909177
:104D6000E80090FF05C09091E8009E779093E800DE
:104D70008F708093E90010921F02089542E061EC69
:104D800081E00E94692942E261EC82E00E94692987
:104D900042E261EC83E00C946929809163028330E4
:104DA00009F460C030F4813071F0823009F499C0A8
:104DB00008958A3009F485C08B3009F46BC08930BE
:104DC00009F0A7C020C080916202813A09F0A1C019
:104DD0008091E800877F8093E8008091660290913F
:104DE0006702892B21F468E080E292E003C060E072
:104DF00080E090E070E00E94A5288091E8008B7729
:104E00008093E800089580916202813209F081C0A8
:104E10008091660290916702029708F07AC08091B3
:104E2000E800877F8093E8008091E80082FD05C05C
:104E3000809161028111F8CF6CC02091F3008091C4
:104E4000F20090E0922B029729F48091F1008B7F81
:104E5000813021F48091F100809328028091E80054
:104E60008B7753C080916202813A09F052C08091E1
:104E7000660290916702892B09F04BC08091E8008F
:104E8000877F8093E8008091E80080FFFCCF8091CD
:104E9000310136C0809162028132D9F5809166027B
:104EA00090916702892BA9F58091E800877F809314
:104EB000E8000E949E2980916402809331010C9445
:104EC000B91C80916202813221F58091E800877FD0
:104ED0008093E8000E949E298091650280932902B8
:104EE000089580916202813AA1F48091E800877F61
:104EF0008093E8008091E80080FFFCCF8091290238
:104F00008093F1008091E8008E778093E8000C9404
:104F10009E29089584B7877F84BF0FB6F894A8951B
:104F200080916000886180936000109260000FBEE5
:104F300090E080E80FB6F894809361009093610050
:104F40000FBE0E949D170E94EF290E944C2A80915B
:104F5000E20084608093E2008FE495E20E942023C7
:104F600078940E94DA2C0E94A31787E291E00E94B5
:104F7000091783E497E00E94A804809161028530BC
:104F800089F48FE397E00E94A8040E942B2480916B
:104F90005F02882391F30E946024882371F30E94AA
:104FA0004428EBCF0E94D717E8CF0C94D727292F9E
:104FB000332723303105C9F064F42130310581F005
:104FC0002230310509F049C08BE590E020EA37E056
:104FD00048C02132310521F12232310571F13DC045
:104FE00082E190E02BEF37E03CC0992781309105BA
:104FF00071F02CF4892B89F5ECE9F7E00DC08230D3
:10500000910541F0039749F5E8E6F7E005C0ECE8C3
:10501000F7E002C0EEE6F7E0849190E09F0121C046
:1050200063307105D0F4660F771FFB01ED5AFE4F18
:105030002081318189E090E014C06330710568F40B
:10504000FB01EE0FFF1FE35BFE4F20813181FB016F
:10505000E65BFE4F808190E004C080E090E020E0BD
:1050600030E0FA0131832083089580916102843019
:1050700011F081E0089582E0089580912A02811163
:1050800002C00C943528089580E189BD82E189BD74
:1050900009B400FEFDCF8091D8008F7D8093D800A9
:1050A0008091E00082608093E0008091E00081FDCB
:1050B000FCCF0895CF92DF92EF92FF920F931F9350
:1050C000CF93DF93EC018B016A010E94BD2981110E
:1050D00033C0C114D10439F0F60180819181081BDD
:1050E000190BC80FD91FE12CF12C0115110519F16D
:1050F0008091E80085FD16C08091E8008E7780934E
:10510000E800C114D10449F0F60180819181E80ED4
:10511000F91EF182E08285E00FC00E94BD2988233C
:1051200021F30AC089918093F10001501109FFEF2A
:10513000EF1AFF0ADACF80E0DF91CF911F910F9134
:10514000FF90EF90DF90CF9008952091680230910A
:1051500069022617370748F06115710539F4209167
:10516000E8002E772093E80001C0B90140E0611506
:105170007105A9F120916102222309F443C0253071
:1051800009F442C02091E80023FD40C02091E800CE
:1051900022FD32C02091E80020FFE9CF4091F300CA
:1051A0002091F20030E0342BFC01CF016115710534
:1051B00059F02830310540F481918093F10061501D
:1051C00071092F5F3F4FF1CF41E02830310509F0E1
:1051D00040E02091E8002E772093E800C8CF4111ED
:1051E000C9CF0AC080916102882361F0853061F0E7
:1051F0008091E80083FD0AC08091E80082FFF2CF31
:1052000080E0089582E0089583E0089581E00895A4
:1052100020916802309169022617370748F061151E
:10522000710539F42091E8002E772093E80001C041
:10523000B901FC0120E06115710591F180916102D5
:10524000882309F440C0853009F43FC08091E8000C
:1052500083FD3DC08091E80082FD2FC08091E80071
:1052600080FFE9CF2091F3008091F20090E0922B33
:105270006115710559F08830910540F4249120930F
:10528000F1003196615071090196F2CF21E0089743
:1052900009F020E08091E8008E778093E800CBCF82
:1052A0002111CCCF0AC080916102882361F0853042
:1052B00061F08091E80083FD0AC08091E80082FFE0
:1052C000F2CF80E0089582E0089583E0089581E0C0
:1052D0000895982F973058F59093E900981739F072
:1052E0007091EC002091ED005091F00003C0242F4C
:1052F000762F50E021FF19C03091EB003E7F3093B4
:10530000EB003091ED003D7F3093ED003091EB00EC
:1053100031603093EB007093EC002093ED005093DC
:10532000F0002091EE0027FF07C09F5FD3CF8F7062
:105330008093E90081E0089580E008958091620201
:1053400087FF11C08091E80082FD05C08091610255
:105350008111F8CF11C08091E8008B770BC080914C
:105360006102882349F08091E80080FFF8CF8091A6
:10537000E8008E778093E80008952091E400309152
:10538000E50095E64091EC00842F817040FF22C03B
:105390008091E80080FD1CC080916102882391F01B
:1053A000853091F08091EB0085FD10C04091E400C4
:1053B0005091E5004217530729F39A01915011F7D4
:1053C00084E0089582E0089583E0089581E00895DF
:1053D00080E008954091E80042FFDECF08950E94EA
:1053E0005D2A0E94652AE0EEF0E080818160808382
:1053F000E8EDF0E080818F77808319BCA7EDB0E005
:105400008C918E7F8C9380818F7E8083109260023E
:1054100008950F931F93CF93DF930E945D2A0E94FC
:10542000652AC8EDD0E088818F778883888180687D
:10543000888388818F7D888319BC109261021092C5
:105440005D0210925F0210925E0200EE10E0F80121
:1054500080818B7F808388818160888342E060E0E7
:1054600080E00E946929E1EEF0E080818E7F8083F8
:10547000E2EEF0E0808181608083808188608083BB
:10548000F80180818E7F8083888180618883DF91AD
:10549000CF911F910F910895E8EDF0E080818F7E0C
:1054A0008083E7EDF0E080818160808384E082BFCB
:1054B00081E0809360020C94092AE8EDF0E080819D
:1054C0008E7F80831092E20008951092DA0010928D
:1054D000E10008951F920F920FB60F9211242F939F
:1054E0003F934F935F936F937F938F939F93AF936C
:1054F000BF93EF93FF938091E10082FF0BC08091F7
:10550000E20082FF07C08091E1008B7F8093E10081
:105510000E947D268091DA0080FF1FC08091D80014
:1055200080FF1BC08091DA008E7F8093DA0080912B
:10553000D90080FF0DC080E189BD82E189BD09B439
:1055400000FEFDCF81E0809361020E94562605C0D7
:1055500019BC109261020E9468268091E10080FFD0
:1055600019C08091E20080FF15C08091E2008E7F1B
:105570008093E2008091E20080618093E20080915C
:10558000D80080628093D80019BC85E080936102C6
:105590000E9473268091E10084FF30C08091E20078
:1055A00084FF2CC080E189BD82E189BD09B400FE81
:1055B000FDCF8091D8008F7D8093D8008091E1004D
:1055C0008F7E8093E1008091E2008F7E8093E200E5
:1055D0008091E20081608093E20080915D028823E7
:1055E00011F084E007C08091E30087FD02C081E0F4
:1055F00001C083E0809361020E9477268091E100E0
:1056000083FF29C08091E20083FF25C08091E100E3
:10561000877F8093E10082E08093610210925D02B7
:105620008091E1008E7F8093E1008091E2008E7F87
:105630008093E2008091E20080618093E20042E08A
:1056400060E080E00E9469298091F000886080938A
:10565000F0000E946F26FF91EF91BF91AF919F9153
:105660008F917F916F915F914F913F912F910F900B
:105670000FBE0F901F9018951F920F920FB60F92AA
:1056800011242F933F934F935F936F937F938F9347
:105690009F93AF93BF93CF93DF93EF93FF93C0910B
:1056A000E900CF708091EC00D82FD17080FDD0E858
:1056B0001092E9008091F000877F8093F000789449
:1056C0000E94802B1092E9008091F0008860809306
:1056D000F000CD2BCF70C093E900FF91EF91DF91E7
:1056E000CF91BF91AF919F918F917F916F915F917A
:1056F0004F913F912F910F900FBE0F901F901895D3
:105700001F93CF93DF93CDB7DEB7AA970FB6F89468
:10571000DEBF0FBECDBFE2E6F2E088E08E0F9091D3
:10572000F10091938E13FBCF0E94CD268091E8006B
:1057300083FF28C18091620290916302492F50E05B
:105740004A30510508F01EC1FA01E857FF4F0C948A
:10575000472D803821F0823809F014C108C08091AB
:105760005E0290915F02992389F082600FC0809160
:1057700066028F70873008F005C18093E900809140
:10578000EB0085FB882780F91092E9009091E800F2
:10579000977F9093E8008093F1001092F100D0C0C1
:1057A000282F2D7F09F0EEC0882319F0823061F098
:1057B000E9C080916402813009F0E4C0933009F0BF
:1057C00080E080935F022EC08091640281112AC024
:1057D000809166028F702FEF280F263008F0D2C01C
:1057E0008093E9002091EB0020FF1CC0933021F44E
:1057F0008091EB00806214C09091EB0090619093D7
:10580000EB0021E030E0A90102C0440F551F8A954A
:10581000E2F74093EA001092EA008091EB00886082
:105820008093EB001092E9008091E800877F8093DD
:10583000E8000E949E29A6C08111A4C010916402B4
:105840001F778091E3008078812B8093E300809123
:10585000E800877F8093E8000E949E298091E800FD
:1058600080FFFCCF8091E30080688093E3001111FA
:1058700002C082E001C083E08093610283C080584F
:10588000823008F07FC080916402909165028C3D67
:1058900053E0950779F583E08A838AE289834FB7DD
:1058A000F894DE01139620E03EE051E2E32FF0E0B1
:1058B00050935700E49120FF03C0E295EF703F5FE3
:1058C000EF708E2F90E0EA3010F0C79601C0C096BE
:1058D0008D939D932F5F243149F74FBF8091E8004E
:1058E000877F8093E8006AE270E0CE0101960E9413
:1058F000A52815C06091660270916702AE014F5FE6
:105900005F4F0E94D527BC01892BE1F19091E800FF
:10591000977F9093E80089819A810E94082980915D
:10592000E8008B778093E8002DC0803859F580918E
:10593000E800877F8093E80080915D028093F1000A
:105940008091E8008E7773CF81111CC09091640222
:105950009230C0F48091E800877F8093E8009093B4
:105960005D020E949E2980915D02811106C0809196
:10597000E30087FD02C081E001C084E08093610202
:105980000E94BE268091E80083FF0AC08091E80053
:10599000877F8093E8008091EB0080628093EB002A
:1059A000AA960FB6F894DEBF0FBECDBFDF91CF91A0
:1059B0001F910895CF93809161028823A1F0C09137
:1059C000E900CF709091EC00892F817090FD80E804
:1059D000C82B1092E9008091E80083FD0E94802B83
:1059E000CF70C093E900CF910895DB018F939F930F
:1059F0000E945C2DBF91AF91A29F800D911DA39F2E
:105A0000900DB29F900D11240895991B79E004C068
:105A1000991F961708F0961B881F7A95C9F78095ED
:105A20000895AA1BBB1B51E107C0AA1FBB1FA617E5
:105A3000B70710F0A61BB70B881F991F5A95A9F737
:105A400080959095BC01CD010895A1E21A2EAA1B64
:105A5000BB1BFD010DC0AA1FBB1FEE1FFF1FA2171E
:105A6000B307E407F50720F0A21BB30BE40BF50B1B
:105A7000661F771F881F991F1A9469F760957095A4
:105A8000809590959B01AC01BD01CF010895EE0F6B
:105A9000FF1F0590F491E02D0994A29FB001B39FE0
:105AA000C001A39F700D811D1124911DB29F700D27
:105AB000811D1124911D08950E944D2DA59F900DCB
:105AC000B49F900DA49F800D911D11240895F99904
:105AD000FECF92BD81BDF89A992780B50895A6E1C1
